:020000040000FA
:060000000A128A110E280D
:10000800FE00030EF2000A08F3007F08F4000A124B
:100018008A1125280A128A111128F501F601F7011B
:10002800F80183120313AD01AE01AF01B001B101B4
:10003800B201B301B401B501B60183010A128A11F4
:100048004C2B8B1C2828292876288B108312031305
:1000580007128230F100DD30F000F00B3128F10B8F
:10006800312836288312031387108230F100DD30DF
:10007800F000F00B3D28F10B3D28422883120313B2
:1000880007118230F100DD30F000F00B4928F10B48
:1000980049284E288312031387118230F100DD307E
:1000A800F000F00B5528F10B55285A28831203133A
:1000B80007108230F100DD30F000F00B6128F10B01
:1000C800612866288312031387128230F100DD301D
:1000D800F000F00B6D28F10B6D28722883120313C2
:1000E800B501B601831203130C1F7B287C28B82A9C
:1000F8000C137F3033063404031983288428B4286A
:10010800B501B60187108230F100DD30F000F00B48
:100118008B28F10B8B289028831203130710823049
:10012800F100DD30F000F00B9728F10B97289C28A0
:100138008312031387118230F100DD30F000F00BD9
:10014800A328F10BA328A82883120313871282304F
:10015800F100DD30F000F00BAF28F10BAF28B42828
:100168007F3083120313310632040319BC28BD28DB
:10017800FA28B501B60187108230F100DD30F000B1
:10018800F00BC428F10BC428C92883120313871164
:100198008230F100DD30F000F00BD028F10BD028D0
:1001A800D5288312031307108230F100DD30F000E8
:1001B800F00BDC28F10BDC28E128831203138712EB
:1001C8008230F100DD30F000F00BE828F10BE82870
:1001D800ED288312031307158230F100DD30F0009B
:1001E800F00BF428F10BF428F92803297F303106A5
:1001F8003204031D0029012903290711F02883125D
:1002080003133008803AFF0080307F02031D0E2957
:1002180080302F02031C1129122939298312031354
:10022800B501B60107168230F100DD30F000F00BA1
:100238001B29F10B1B2920298312031387108230F5
:10024800F100DD30F000F00B2729F10B27292C29CC
:100258008312031307108230F100DD30F000F00B39
:100268003329F10B3329382944297F3083120313AA
:100278002F063004031D41294229442907122F293A
:100288007F30831203132D062E0403194C294D29A0
:100298009B2A7F30330634040319532954299B2A97
:1002A8007F302F06300403195A295B299B2AB50190
:1002B800B60187104130F100EE30F000F00B6229F2
:1002C800F10B622900008312031307104130F1007B
:1002D800EE30F000F00B6E29F10B6E29000083124E
:1002E80003132E08803AFF0080307F02031D7E2909
:1002F80080302D02031C81298229B6298312031319
:100308003408803AFF0080307F02031D8D29803039
:100318003302031C90299129B629831203138715E8
:100328008230F100DD30F000F00B9829F10B9829AC
:100338009D298312031387118230F100DD30F0000C
:10034800F00BA429F10BA429A929831203138712FE
:100358008230F100DD30F000F00BB029F10BB0294C
:10036800B529B82A831203132E08803AFF0080307B
:100378007F02031DC1297F302D020318C429C52916
:10038800ED29831203133408803AFF0080307F027E
:10039800031DD0297F3033020318D329D429ED292E
:1003A8008312031387158230F100DD30F000F00B63
:1003B800DB29F10BDB29E02983120313871682302E
:1003C800F100DD30F000F00BE729F10BE729EC290B
:1003D800B82A831203132E08803AFF0080307F0268
:1003E800031DF82980302D02031CFB29FC29542AFF
:1003F800831203133408803AFF0080307F02031D04
:10040800072A7F30330203180A2A0B2A542A831238
:10041800031387154130F100EE30F000F00B122A7B
:10042800F10B122A00008312031387114130F100E7
:10043800EE30F000F00B1E2AF10B1E2A000083128A
:10044800031387154130F100EE30F000F00B2A2A33
:10045800F10B2A2A00008312031387114130F1009F
:10046800EE30F000F00B362AF10B362A000083122A
:10047800031387154130F100EE30F000F00B422AEB
:10048800F10B422A00008312031387114130F10057
:10049800EE30F000F00B4E2AF10B4E2A0000B82A7D
:1004A800831203132E08803AFF0080307F02031D59
:1004B8005F2A7F302D020318622A632A9A2A831240
:1004C80003133408803AFF0080307F02031D6E2A30
:1004D80080303302031C712A722A9A2A831203136A
:1004E80087154130F100EE30F000F00B792AF10B5E
:1004F800792A00008312031387114130F100EE308E
:10050800F000F00B852AF10B852A000083120313F3
:1005180087154130F100EE30F000F00B912AF10B15
:10052800912A0000831203138711B82AB82A7F3052
:100538002D062E04031DA12AA22AB82A871182306B
:10054800F100DD30F000F00BA72AF10BA72AAC2A46
:100558008312031387128230F100DD30F000F00BB4
:10056800B32AF10BB32AB82A831203130C1CBD2A31
:10057800BE2A432B0C10DC308E000B308F00043069
:1005880077067804031DC92ACA2A1F2B35033604A7
:10059800031DCF2AD02A1F2B07128230F100DD302D
:1005A800F000F00BD52AF10BD52ADA2A83120313AF
:1005B80087108230F100DD30F000F00BE12AF10BFA
:1005C800E12AE62A8312031307118230F100DD3095
:1005D800F000F00BED2AF10BED2AF22A8312031337
:1005E80087118230F100DD30F000F00BF92AF10BB1
:1005F800F92AFE2A8312031307108230F100DD3036
:10060800F000F00B052BF10B052B0A2B83120313BB
:1006180087128230F100DD30F000F00B112BF10B66
:10062800112B162BF701F8010130F5070318F60A0C
:100638000030F607432B0430770678040319252B7E
:10064800262B432B35033604031D2B2B2C2B432B36
:1006580087148230F100DD30F000F00B312BF10B04
:10066800312B362B8312031307148230F100DD304F
:10067800F000F00B3D2BF10B3D2B422B432B740864
:10068800FF0073088A00720E8300FE0E7E0E0900BA
:100698008316031381130F3086008701FF3085000E
:1006A8008801831203130712413083120313AB002E
:1006B800ED30AA00AA0B5E2BAB0B5E2B632B8312CB
:1006C80003138710413083120313AB00ED30AA00E7
:1006D800AA0B6C2BAB0B6C2B712B8312031307111A
:1006E800413083120313AB00ED30AA00AA0B7A2B1A
:1006F800AB0B7A2B7F2B83120313871141308312A4
:100708000313AB00ED30AA00AA0B882BAB0B882B88
:100718008D2B831203130710413083120313AB0090
:10072800ED30AA00AA0B962BAB0B962B9B2B8312B2
:1007380003138712413083120313AB00ED30AA0074
:10074800AA0BA42BAB0BA42BA92B0A128A11972650
:100758000A128A118316031301178B170B161F141D
:100768009F101F119F15831203131F139F138316C6
:1007780003139F139E01831203139E011F148B17EB
:100788000B17831603130C148312031390101016FF
:100798009016DC308E000B308F0010148312031378
:1007A8009F111F129F12023083120313AA00AA0B73
:1007B800DB2B0000831203131F150230831203136F
:1007C800AA00AA0BE52B0000831203131E08AA0037
:1007D800AB012A08B3002B08B4009F151F129F1203
:1007E800023083120313AA00AA0BF82B000083120D
:1007F80003131F15023083120313AA00AA0B022C3D
:100808000000831203131E08AA00AB012A08B100D6
:100818002B08B2009F111F169F1202308312031378
:10082800AA00AA0B152C0000831203131F1502300F
:1008380083120313AA00AA0B1F2C000083120313B0
:100848001E08AA00AB012A08AF002B08B0009F15AC
:100858001F169F12023083120313AA00AA0B322C10
:100868000000831203131F15023083120313AA001A
:10087800AA0B3C2C0000831203131E08AA00AB012C
:100888002A08AD002B08AE0006194B2C4C2C502C16
:100898000130B5000030B6007F3033063404031948
:1008A800562C572CC62C0A128A11E4270A128A11D0
:1008B80083120313A401A40A01300A128A11FA262A
:1008C8000A128A1138300A128A117F270A128A11ED
:1008D800823083120313AB00DD30AA00AA0B722CFE
:1008E800AB0B722C831203133408803AFF0080305C
:1008F8007F02031D812C80303302031C842C852C3D
:10090800A42C83120313A401A40A02300A128A1128
:10091800FA260A128A1169300A128A117F270A12E6
:100928008A11063083120313AC001330AB00AD30CC
:10093800AA00AA0B9D2CAB0B9D2CAC0B9D2CC42C98
:10094800831203133408803AFF0080307F02031DAE
:10095800AF2C7F3033020318B22CB32CC42C831273
:100968000313A401A40A02300A128A11FA260A12F1
:100978008A115C300A128A117F270A128A11952C73
:100988006400D22C7F3033063404031DCC2CCD2CCC
:10099800D22C0A128A11E4270A128A117F30831294
:1009A8000313310632040319DA2CDB2C1E2D0A122C
:1009B8008A11E4270A128A1183120313A401A40AD4
:1009C80001300A128A11FA260A128A1127300A12ED
:1009D8008A117F270A128A11063083120313AC008A
:1009E8001330AB00AD30AA00AA0BF82CAB0BF82CD7
:1009F800AC0BF82C83120313A401A40A02300A12C8
:100A08008A11FA260A128A116E300A128A117F2771
:100A18000A128A11063083120313AC001330AB009C
:100A2800AD30AA00AA0B162DAB0B162DAC0B162D4C
:100A380064002A2D7F3031063204031D242D252D14
:100A48002A2D0A128A11E4270A128A117F3083128A
:100A580003132F0630040319322D332D812D0A126A
:100A68008A11E4270A128A1183120313A401A40A23
:100A780001300A128A11FA260A128A1101300A1262
:100A88008A117F270A128A11823083120313AB005E
:100A9800DD30AA00AA0B4E2DAB0B4E2D831203138B
:100AA8003008803AFF0080307F02031D5D2D8030C2
:100AB8002F02031C602D612D7F2D83120313A401C7
:100AC800A40A02300A128A11FA260A128A1115306B
:100AD8000A128A117F270A128A1106308312031319
:100AE800AC001330AB00AD30AA00AA0B792DAB0BCC
:100AF800792DAC0B792D64008D2D7F302F063004B5
:100B0800031D872D882D8D2D0A128A11E4270A12BC
:100B18008A117F30831203132D062E040319952D95
:100B2800962D0C2E7F303306340403199C2D9D2DF1
:100B38000C2E0A128A11E4270A128A11831203134F
:100B4800A401A40A01300A128A11FA260A128A118B
:100B580047300A128A117F270A128A1182308312BB
:100B68000313AB00DD30AA00AA0BB82DAB0BB82DD0
:100B7800831203132E08803AFF0080307F02031D82
:100B8800C72D80302D02031CCA2DCB2DEA2D8312D0
:100B98000313A401A40A02300A128A11FA260A12BF
:100BA8008A1162300A128A117F270A128A110630C6
:100BB80083120313AC001330AB00AD30AA00AA0BAC
:100BC800E32DAB0BE32DAC0BE32D0A2E831203139D
:100BD8002E08803AFF0080307F02031DF52D7F30FC
:100BE8002D020318F82DF92D0A2E83120313A401E0
:100BF800A40A02300A128A11FA260A128A115530FA
:100C08000A128A117F270A128A11DB2D6400182E16
:100C18007F302D062E04031D122E132E182E0A12B5
:100C28008A11E4270A128A116400D22B0A128A1147
:100C38000E2806308A000408840A820700344534E6
:100C480053345434413444344F34203444344134DC
:100C580020344534533443344F34543449344C34B9
:100C68004834413400344534533443344F345434D5
:100C780049344C34483441343A34203441344234D1
:100C880045345234543441340034453453345434A4
:100C9800413444344F34203444344F3420345034B5
:100CA8004F345234543441344F3400345034453482
:100CB80053344F34203444344F3420344D344F347B
:100CC80049344E3448344F3400344E344934563461
:100CD80045344C342034443441342034413447348E
:100CE8005534413400344E344934563445344C3448
:100CF8003A34203442344134493458344F3400347F
:100D08004E344934563445344C343A342034413422
:100D18004C3454344F340034413442344534523422
:100D280054344F34003400300A128A11A8270A12AA
:100D38008A111A3083120313A500F730A400A40BFC
:100D4800A32EA50BA32EA82E03300A128A11C8279A
:100D58000A128A11073083120313A5007C30A400FD
:100D6800A40BB42EA50BB42E000003300A128A116E
:100D7800C8270A128A110F3083120313A5004730BF
:100D8800A400A40BC52EA50BC52E03300A128A1188
:100D9800C8270A128A1102300A128A11C8270A12B1
:100DA8008A1102300A128A11C8270A128A110830D9
:100DB8000A128A11C8270A128A1100300A128A11E7
:100DC800C8270A128A110C300A128A11C8270A1277
:100DD8008A1100300A128A11C8270A128A110630AD
:100DE8000A128A11C8270A128A11080083120313EB
:100DF800A6002603031D012F022F212F24087F3E62
:100E0800A9002908A50004300310A50CFF3E031D06
:100E1800082F2508A70029080F39A80027080A1253
:100E28008A11C8270A128A118312031328080A1282
:100E38008A11C8270A128A11452F02302606031D77
:100E4800262F272F452F2408BF3EA9002908A500D3
:100E580004300310A50CFF3E031D2D2F2508A70005
:100E680029080F39A80027080A128A11C8270A1268
:100E78008A118312031328080A128A11C8270A1232
:100E88008A11080083120313A40024080F39A20052
:100E98002408F039A30008152308A1000430031022
:100EA800A10CFF3E031D532F21080A128A11A827FF
:100EB8000A128A118312031388150C308312031344
:100EC800A100A10B652F00008312031388112208CB
:100ED8000A128A11A8270A128A1183120313881585
:100EE8000C3083120313A100A10B782F000083128A
:100EF80003138811080083120313A700A501A60194
:100F08009A2F2508270784000A128A111D260A121B
:100F18008A110A128A1146270A128A11013083128D
:100F28000313A5070318A60A0030A60725082707F4
:100F380084000A128A111D260A128A11003A031D1A
:100F4800A62FA72F852F080083120313A000201CAB
:100F5800AE2FAF2FB12F0816B22F0812A01CB52F35
:100F6800B62FB82F8816B92F8812201DBC2FBD2F79
:100F7800BF2F0817C02F0813A01DC32FC42FC62FBB
:100F88008817C72F8813080083120313A3000811BA
:100F980023080A128A11A8270A128A118312031336
:100FA8008815063083120313A2002F30A100A10B6D
:100FB800DB2FA20BDB2FE02F83120313881108000D
:100FC80000300A128A11C8270A128A1101300A123F
:0A0FD8008A11C8270A128A110800C6
:02400E00F23F7F
:00000001FF
